{
  "_format": "hh-sol-artifact-1",
  "contractName": "ARE_Proxy",
  "sourceName": "contracts/AREProxy.sol",
  "abi": [
    {
      "inputs": [
        {
          "internalType": "address",
          "name": "_implContract",
          "type": "address"
        }
      ],
      "stateMutability": "nonpayable",
      "type": "constructor"
    },
    {
      "anonymous": false,
      "inputs": [
        {
          "indexed": true,
          "internalType": "address",
          "name": "marketowner",
          "type": "address"
        },
        {
          "indexed": true,
          "internalType": "address",
          "name": "newImplAddrs",
          "type": "address"
        }
      ],
      "name": "ImplUpgrade",
      "type": "event"
    },
    {
      "anonymous": false,
      "inputs": [
        {
          "indexed": true,
          "internalType": "address",
          "name": "owner",
          "type": "address"
        },
        {
          "indexed": true,
          "internalType": "address",
          "name": "user",
          "type": "address"
        },
        {
          "indexed": true,
          "internalType": "address",
          "name": "nftContract",
          "type": "address"
        },
        {
          "indexed": false,
          "internalType": "uint256",
          "name": "tokenId",
          "type": "uint256"
        },
        {
          "indexed": false,
          "internalType": "uint256",
          "name": "pricePerDay",
          "type": "uint256"
        },
        {
          "indexed": false,
          "internalType": "uint256",
          "name": "expires",
          "type": "uint256"
        }
      ],
      "name": "NFTListed",
      "type": "event"
    },
    {
      "anonymous": false,
      "inputs": [
        {
          "indexed": true,
          "internalType": "address",
          "name": "owner",
          "type": "address"
        },
        {
          "indexed": true,
          "internalType": "address",
          "name": "user",
          "type": "address"
        },
        {
          "indexed": true,
          "internalType": "address",
          "name": "nftContract",
          "type": "address"
        },
        {
          "indexed": false,
          "internalType": "uint256",
          "name": "tokenId",
          "type": "uint256"
        },
        {
          "indexed": false,
          "internalType": "uint64",
          "name": "expires",
          "type": "uint64"
        },
        {
          "indexed": false,
          "internalType": "uint256",
          "name": "rentalFee",
          "type": "uint256"
        }
      ],
      "name": "NFTRented",
      "type": "event"
    },
    {
      "anonymous": false,
      "inputs": [
        {
          "indexed": true,
          "internalType": "address",
          "name": "unlistSender",
          "type": "address"
        },
        {
          "indexed": true,
          "internalType": "address",
          "name": "nftContract",
          "type": "address"
        },
        {
          "indexed": true,
          "internalType": "uint256",
          "name": "tokenId",
          "type": "uint256"
        }
      ],
      "name": "NFTUnlisted",
      "type": "event"
    },
    {
      "inputs": [
        {
          "internalType": "address",
          "name": "nftAddress",
          "type": "address"
        },
        {
          "internalType": "uint256",
          "name": "tokenId",
          "type": "uint256"
        }
      ],
      "name": "getARListing",
      "outputs": [
        {
          "components": [
            {
              "internalType": "address",
              "name": "owner",
              "type": "address"
            },
            {
              "internalType": "address",
              "name": "user",
              "type": "address"
            },
            {
              "internalType": "address",
              "name": "nftContract",
              "type": "address"
            },
            {
              "internalType": "uint256",
              "name": "tokenId",
              "type": "uint256"
            },
            {
              "internalType": "uint256",
              "name": "pricePerDay",
              "type": "uint256"
            },
            {
              "internalType": "uint256",
              "name": "expires",
              "type": "uint256"
            }
          ],
          "internalType": "struct ARE_Proxy.Listing_rent",
          "name": "",
          "type": "tuple"
        }
      ],
      "stateMutability": "view",
      "type": "function"
    },
    {
      "inputs": [],
      "name": "getImplAddrs",
      "outputs": [
        {
          "internalType": "address",
          "name": "",
          "type": "address"
        }
      ],
      "stateMutability": "view",
      "type": "function"
    },
    {
      "inputs": [],
      "name": "getListingFee",
      "outputs": [
        {
          "internalType": "uint256",
          "name": "",
          "type": "uint256"
        }
      ],
      "stateMutability": "view",
      "type": "function"
    },
    {
      "inputs": [
        {
          "internalType": "address",
          "name": "nftAddress",
          "type": "address"
        }
      ],
      "name": "getRListedAdddressTokens",
      "outputs": [
        {
          "internalType": "uint256[]",
          "name": "",
          "type": "uint256[]"
        }
      ],
      "stateMutability": "view",
      "type": "function"
    },
    {
      "inputs": [],
      "name": "getRListedAdddresses",
      "outputs": [
        {
          "internalType": "address[]",
          "name": "",
          "type": "address[]"
        }
      ],
      "stateMutability": "view",
      "type": "function"
    },
    {
      "inputs": [
        {
          "internalType": "address",
          "name": "nftContract",
          "type": "address"
        }
      ],
      "name": "isNFT",
      "outputs": [
        {
          "internalType": "bool",
          "name": "",
          "type": "bool"
        }
      ],
      "stateMutability": "view",
      "type": "function"
    },
    {
      "inputs": [
        {
          "internalType": "address",
          "name": "nftContract",
          "type": "address"
        }
      ],
      "name": "isRentableNFT",
      "outputs": [
        {
          "internalType": "bool",
          "name": "",
          "type": "bool"
        }
      ],
      "stateMutability": "view",
      "type": "function"
    },
    {
      "inputs": [
        {
          "internalType": "address",
          "name": "nftAddress",
          "type": "address"
        },
        {
          "internalType": "uint256",
          "name": "tokenId",
          "type": "uint256"
        },
        {
          "internalType": "uint256",
          "name": "pricePerDay",
          "type": "uint256"
        }
      ],
      "name": "listNFT",
      "outputs": [
        {
          "internalType": "string",
          "name": "",
          "type": "string"
        }
      ],
      "stateMutability": "payable",
      "type": "function"
    },
    {
      "inputs": [
        {
          "internalType": "address",
          "name": "nftAddress",
          "type": "address"
        },
        {
          "internalType": "uint256",
          "name": "tokenId",
          "type": "uint256"
        },
        {
          "internalType": "uint64",
          "name": "numDays",
          "type": "uint64"
        }
      ],
      "name": "rentNFT",
      "outputs": [
        {
          "internalType": "string",
          "name": "",
          "type": "string"
        }
      ],
      "stateMutability": "payable",
      "type": "function"
    },
    {
      "inputs": [
        {
          "internalType": "address",
          "name": "nftAddress",
          "type": "address"
        },
        {
          "internalType": "uint256",
          "name": "tokenId",
          "type": "uint256"
        }
      ],
      "name": "unlistNFT",
      "outputs": [
        {
          "internalType": "string",
          "name": "",
          "type": "string"
        }
      ],
      "stateMutability": "payable",
      "type": "function"
    },
    {
      "inputs": [
        {
          "internalType": "address",
          "name": "newImplAddrs",
          "type": "address"
        }
      ],
      "name": "updateImplContract",
      "outputs": [],
      "stateMutability": "nonpayable",
      "type": "function"
    },
    {
      "inputs": [
        {
          "internalType": "address",
          "name": "nftAddress",
          "type": "address"
        },
        {
          "internalType": "uint256",
          "name": "tokenId",
          "type": "uint256"
        },
        {
          "internalType": "uint256",
          "name": "pricePerDay",
          "type": "uint256"
        }
      ],
      "name": "updateNFT",
      "outputs": [
        {
          "internalType": "string",
          "name": "",
          "type": "string"
        }
      ],
      "stateMutability": "nonpayable",
      "type": "function"
    }
  ],
  "bytecode": "0x6080604052662386f26fc10000600255600a600360006101000a81548167ffffffffffffffff021916908367ffffffffffffffff1602179055503480156200004657600080fd5b5060405162001c4c38038062001c4c83398181016040528101906200006c919062000167565b600160008190555033600160006101000a81548173ffffffffffffffffffffffffffffffffffffffff021916908373ffffffffffffffffffffffffffffffffffffffff16021790555080600960006101000a81548173ffffffffffffffffffffffffffffffffffffffff021916908373ffffffffffffffffffffffffffffffffffffffff1602179055505062000199565b600080fd5b600073ffffffffffffffffffffffffffffffffffffffff82169050919050565b60006200012f8262000102565b9050919050565b620001418162000122565b81146200014d57600080fd5b50565b600081519050620001618162000136565b92915050565b60006020828403121562000180576200017f620000fd565b5b6000620001908482850162000150565b91505092915050565b611aa380620001a96000396000f3fe6080604052600436106100a75760003560e01c80639a34f003116100645780639a34f003146101d5578063ad05f1b414610205578063b31b85c914610235578063b8fe6abe14610272578063e9a6f4f61461029d578063f9b8ed25146102da576100a7565b80631578e7c8146100ac578063555df3cd146100e95780636ae012c8146101265780637fc27efd146101515780638524528f1461018157806395046b7c146101aa575b600080fd5b3480156100b857600080fd5b506100d360048036038101906100ce91906110fc565b610317565b6040516100e091906111d5565b60405180910390f35b3480156100f557600080fd5b50610110600480360381019061010b91906111f0565b6104a2565b60405161011d91906112cc565b60405180910390f35b34801561013257600080fd5b5061013b6104f8565b60405161014891906112fd565b60405180910390f35b61016b600480360381019061016691906110fc565b610522565b60405161017891906113a8565b60405180910390f35b34801561018d57600080fd5b506101a860048036038101906101a391906111f0565b6106a0565b005b3480156101b657600080fd5b506101bf610822565b6040516101cc9190611479565b60405180910390f35b6101ef60048036038101906101ea91906114db565b610839565b6040516101fc91906113a8565b60405180910390f35b61021f600480360381019061021a919061152e565b6109ba565b60405161022c91906113a8565b60405180910390f35b34801561024157600080fd5b5061025c600480360381019061025791906111f0565b610b3b565b604051610269919061159c565b60405180910390f35b34801561027e57600080fd5b50610287610bf1565b60405161029491906115c6565b60405180910390f35b3480156102a957600080fd5b506102c460048036038101906102bf91906111f0565b610bfb565b6040516102d1919061159c565b60405180910390f35b3480156102e657600080fd5b5061030160048036038101906102fc919061152e565b610d64565b60405161030e91906113a8565b60405180910390f35b61031f610fdc565b600460008473ffffffffffffffffffffffffffffffffffffffff1673ffffffffffffffffffffffffffffffffffffffff16815260200190815260200160002060008381526020019081526020016000206040518060c00160405290816000820160009054906101000a900473ffffffffffffffffffffffffffffffffffffffff1673ffffffffffffffffffffffffffffffffffffffff1673ffffffffffffffffffffffffffffffffffffffff1681526020016001820160009054906101000a900473ffffffffffffffffffffffffffffffffffffffff1673ffffffffffffffffffffffffffffffffffffffff1673ffffffffffffffffffffffffffffffffffffffff1681526020016002820160009054906101000a900473ffffffffffffffffffffffffffffffffffffffff1673ffffffffffffffffffffffffffffffffffffffff1673ffffffffffffffffffffffffffffffffffffffff1681526020016003820154815260200160048201548152602001600582015481525050905092915050565b606060006104ed600560008573ffffffffffffffffffffffffffffffffffffffff1673ffffffffffffffffffffffffffffffffffffffff168152602001908152602001600020610ee5565b905080915050919050565b6000600960009054906101000a900473ffffffffffffffffffffffffffffffffffffffff16905090565b6060600080600960009054906101000a900473ffffffffffffffffffffffffffffffffffffffff1673ffffffffffffffffffffffffffffffffffffffff1685856040516024016105739291906115e1565b6040516020818303038152906040527f7fc27efd000000000000000000000000000000000000000000000000000000007bffffffffffffffffffffffffffffffffffffffffffffffffffffffff19166020820180517bffffffffffffffffffffffffffffffffffffffffffffffffffffffff83818316178352505050506040516105fd9190611651565b600060405180830381855af49150503d8060008114610638576040519150601f19603f3d011682016040523d82523d6000602084013e61063d565b606091505b509150915081610682576040517f08c379a0000000000000000000000000000000000000000000000000000000008152600401610679906116b4565b60405180910390fd5b8080602001905181019061069691906117fa565b9250505092915050565b6106a8610f06565b600160009054906101000a900473ffffffffffffffffffffffffffffffffffffffff1673ffffffffffffffffffffffffffffffffffffffff163373ffffffffffffffffffffffffffffffffffffffff1614610738576040517f08c379a000000000000000000000000000000000000000000000000000000000815260040161072f906118b5565b60405180910390fd5b80600960006101000a81548173ffffffffffffffffffffffffffffffffffffffff021916908373ffffffffffffffffffffffffffffffffffffffff160217905550600960009054906101000a900473ffffffffffffffffffffffffffffffffffffffff1673ffffffffffffffffffffffffffffffffffffffff16600160009054906101000a900473ffffffffffffffffffffffffffffffffffffffff1673ffffffffffffffffffffffffffffffffffffffff167f1ed34c9a7b236ee6031785cd9ca32de930e1ae39020c1279886b687a307e7fcb60405160405180910390a361081f610f55565b50565b606060006108306006610f5f565b90508091505090565b6060600080600960009054906101000a900473ffffffffffffffffffffffffffffffffffffffff1673ffffffffffffffffffffffffffffffffffffffff1686868660405160240161088c939291906118e4565b6040516020818303038152906040527f9a34f003000000000000000000000000000000000000000000000000000000007bffffffffffffffffffffffffffffffffffffffffffffffffffffffff19166020820180517bffffffffffffffffffffffffffffffffffffffffffffffffffffffff83818316178352505050506040516109169190611651565b600060405180830381855af49150503d8060008114610951576040519150601f19603f3d011682016040523d82523d6000602084013e610956565b606091505b50915091508161099b576040517f08c379a0000000000000000000000000000000000000000000000000000000008152600401610992906116b4565b60405180910390fd5b808060200190518101906109af91906117fa565b925050509392505050565b6060600080600960009054906101000a900473ffffffffffffffffffffffffffffffffffffffff1673ffffffffffffffffffffffffffffffffffffffff16868686604051602401610a0d9392919061191b565b6040516020818303038152906040527fad05f1b4000000000000000000000000000000000000000000000000000000007bffffffffffffffffffffffffffffffffffffffffffffffffffffffff19166020820180517bffffffffffffffffffffffffffffffffffffffffffffffffffffffff8381831617835250505050604051610a979190611651565b600060405180830381855af49150503d8060008114610ad2576040519150601f19603f3d011682016040523d82523d6000602084013e610ad7565b606091505b509150915081610b1c576040517f08c379a0000000000000000000000000000000000000000000000000000000008152600401610b13906116b4565b60405180910390fd5b80806020019051810190610b3091906117fa565b925050509392505050565b600080600090508273ffffffffffffffffffffffffffffffffffffffff166301ffc9a77f80ac58cd000000000000000000000000000000000000000000000000000000006040518263ffffffff1660e01b8152600401610b9b919061198d565b602060405180830381865afa925050508015610bd557506040513d601f19601f82011682018060405250810190610bd291906119d4565b60015b610be3576000915050610bec565b80915050809150505b919050565b6000600254905090565b6000806000905060008373ffffffffffffffffffffffffffffffffffffffff166301ffc9a77fad092b5c000000000000000000000000000000000000000000000000000000006040518263ffffffff1660e01b8152600401610c5d919061198d565b602060405180830381865afa925050508015610c9757506040513d601f19601f82011682018060405250810190610c9491906119d4565b60015b610ca657600092505050610d5f565b809250508373ffffffffffffffffffffffffffffffffffffffff166301ffc9a77f80ac58cd000000000000000000000000000000000000000000000000000000006040518263ffffffff1660e01b8152600401610d03919061198d565b602060405180830381865afa925050508015610d3d57506040513d601f19601f82011682018060405250810190610d3a91906119d4565b60015b610d4c57600092505050610d5f565b80915050818015610d5a5750805b925050505b919050565b6060600080600960009054906101000a900473ffffffffffffffffffffffffffffffffffffffff1673ffffffffffffffffffffffffffffffffffffffff16868686604051602401610db79392919061191b565b6040516020818303038152906040527f979bcbb2000000000000000000000000000000000000000000000000000000007bffffffffffffffffffffffffffffffffffffffffffffffffffffffff19166020820180517bffffffffffffffffffffffffffffffffffffffffffffffffffffffff8381831617835250505050604051610e419190611651565b600060405180830381855af49150503d8060008114610e7c576040519150601f19603f3d011682016040523d82523d6000602084013e610e81565b606091505b509150915081610ec6576040517f08c379a0000000000000000000000000000000000000000000000000000000008152600401610ebd906116b4565b60405180910390fd5b80806020019051810190610eda91906117fa565b925050509392505050565b60606000610ef583600001610f80565b905060608190508092505050919050565b600260005403610f4b576040517f08c379a0000000000000000000000000000000000000000000000000000000008152600401610f4290611a4d565b60405180910390fd5b6002600081905550565b6001600081905550565b60606000610f6f83600001610f80565b905060608190508092505050919050565b606081600001805480602002602001604051908101604052809291908181526020018280548015610fd057602002820191906000526020600020905b815481526020019060010190808311610fbc575b50505050509050919050565b6040518060c00160405280600073ffffffffffffffffffffffffffffffffffffffff168152602001600073ffffffffffffffffffffffffffffffffffffffff168152602001600073ffffffffffffffffffffffffffffffffffffffff1681526020016000815260200160008152602001600081525090565b6000604051905090565b600080fd5b600080fd5b600073ffffffffffffffffffffffffffffffffffffffff82169050919050565b600061109382611068565b9050919050565b6110a381611088565b81146110ae57600080fd5b50565b6000813590506110c08161109a565b92915050565b6000819050919050565b6110d9816110c6565b81146110e457600080fd5b50565b6000813590506110f6816110d0565b92915050565b600080604083850312156111135761111261105e565b5b6000611121858286016110b1565b9250506020611132858286016110e7565b9150509250929050565b61114581611088565b82525050565b611154816110c6565b82525050565b60c082016000820151611170600085018261113c565b506020820151611183602085018261113c565b506040820151611196604085018261113c565b5060608201516111a9606085018261114b565b5060808201516111bc608085018261114b565b5060a08201516111cf60a085018261114b565b50505050565b600060c0820190506111ea600083018461115a565b92915050565b6000602082840312156112065761120561105e565b5b6000611214848285016110b1565b91505092915050565b600081519050919050565b600082825260208201905092915050565b6000819050602082019050919050565b6000611255838361114b565b60208301905092915050565b6000602082019050919050565b60006112798261121d565b6112838185611228565b935061128e83611239565b8060005b838110156112bf5781516112a68882611249565b97506112b183611261565b925050600181019050611292565b5085935050505092915050565b600060208201905081810360008301526112e6818461126e565b905092915050565b6112f781611088565b82525050565b600060208201905061131260008301846112ee565b92915050565b600081519050919050565b600082825260208201905092915050565b60005b83811015611352578082015181840152602081019050611337565b60008484015250505050565b6000601f19601f8301169050919050565b600061137a82611318565b6113848185611323565b9350611394818560208601611334565b61139d8161135e565b840191505092915050565b600060208201905081810360008301526113c2818461136f565b905092915050565b600081519050919050565b600082825260208201905092915050565b6000819050602082019050919050565b6000611402838361113c565b60208301905092915050565b6000602082019050919050565b6000611426826113ca565b61143081856113d5565b935061143b836113e6565b8060005b8381101561146c57815161145388826113f6565b975061145e8361140e565b92505060018101905061143f565b5085935050505092915050565b60006020820190508181036000830152611493818461141b565b905092915050565b600067ffffffffffffffff82169050919050565b6114b88161149b565b81146114c357600080fd5b50565b6000813590506114d5816114af565b92915050565b6000806000606084860312156114f4576114f361105e565b5b6000611502868287016110b1565b9350506020611513868287016110e7565b9250506040611524868287016114c6565b9150509250925092565b6000806000606084860312156115475761154661105e565b5b6000611555868287016110b1565b9350506020611566868287016110e7565b9250506040611577868287016110e7565b9150509250925092565b60008115159050919050565b61159681611581565b82525050565b60006020820190506115b1600083018461158d565b92915050565b6115c0816110c6565b82525050565b60006020820190506115db60008301846115b7565b92915050565b60006040820190506115f660008301856112ee565b61160360208301846115b7565b9392505050565b600081519050919050565b600081905092915050565b600061162b8261160a565b6116358185611615565b9350611645818560208601611334565b80840191505092915050565b600061165d8284611620565b915081905092915050565b7f7472616e73616374696f6e206661696c65640000000000000000000000000000600082015250565b600061169e601283611323565b91506116a982611668565b602082019050919050565b600060208201905081810360008301526116cd81611691565b9050919050565b600080fd5b600080fd5b7f4e487b7100000000000000000000000000000000000000000000000000000000600052604160045260246000fd5b6117168261135e565b810181811067ffffffffffffffff82111715611735576117346116de565b5b80604052505050565b6000611748611054565b9050611754828261170d565b919050565b600067ffffffffffffffff821115611774576117736116de565b5b61177d8261135e565b9050602081019050919050565b600061179d61179884611759565b61173e565b9050828152602081018484840111156117b9576117b86116d9565b5b6117c4848285611334565b509392505050565b600082601f8301126117e1576117e06116d4565b5b81516117f184826020860161178a565b91505092915050565b6000602082840312156118105761180f61105e565b5b600082015167ffffffffffffffff81111561182e5761182d611063565b5b61183a848285016117cc565b91505092915050565b7f6d61726b6574706c6163652063616e206f6e6c7920626520757067726164656460008201527f20627920746865206f776e657200000000000000000000000000000000000000602082015250565b600061189f602d83611323565b91506118aa82611843565b604082019050919050565b600060208201905081810360008301526118ce81611892565b9050919050565b6118de8161149b565b82525050565b60006060820190506118f960008301866112ee565b61190660208301856115b7565b61191360408301846118d5565b949350505050565b600060608201905061193060008301866112ee565b61193d60208301856115b7565b61194a60408301846115b7565b949350505050565b60007fffffffff0000000000000000000000000000000000000000000000000000000082169050919050565b61198781611952565b82525050565b60006020820190506119a2600083018461197e565b92915050565b6119b181611581565b81146119bc57600080fd5b50565b6000815190506119ce816119a8565b92915050565b6000602082840312156119ea576119e961105e565b5b60006119f8848285016119bf565b91505092915050565b7f5265656e7472616e637947756172643a207265656e7472616e742063616c6c00600082015250565b6000611a37601f83611323565b9150611a4282611a01565b602082019050919050565b60006020820190508181036000830152611a6681611a2a565b905091905056fea2646970667358221220b2703565802e0fb3e9e6a1c62be75eafa71f70794c1a2e42ca0f53313e3fb1c064736f6c63430008110033",
  "linkReferences": {},
  "deployedLinkReferences": {}
}