{
  "_format": "hh-sol-artifact-1",
  "contractName": "ASE_Proxy",
  "sourceName": "contracts/ASEProxy.sol",
  "abi": [
    {
      "inputs": [
        {
          "internalType": "address",
          "name": "_implContract",
          "type": "address"
        }
      ],
      "stateMutability": "nonpayable",
      "type": "constructor"
    },
    {
      "anonymous": false,
      "inputs": [
        {
          "indexed": true,
          "internalType": "address",
          "name": "marketowner",
          "type": "address"
        },
        {
          "indexed": true,
          "internalType": "address",
          "name": "newImplAddrs",
          "type": "address"
        }
      ],
      "name": "ImplUpgrade",
      "type": "event"
    },
    {
      "anonymous": false,
      "inputs": [
        {
          "indexed": true,
          "internalType": "address",
          "name": "buyer",
          "type": "address"
        },
        {
          "indexed": true,
          "internalType": "address",
          "name": "nftAddress",
          "type": "address"
        },
        {
          "indexed": true,
          "internalType": "uint256",
          "name": "tokenId",
          "type": "uint256"
        },
        {
          "indexed": false,
          "internalType": "uint256",
          "name": "price",
          "type": "uint256"
        }
      ],
      "name": "ItemBought",
      "type": "event"
    },
    {
      "anonymous": false,
      "inputs": [
        {
          "indexed": true,
          "internalType": "address",
          "name": "seller",
          "type": "address"
        },
        {
          "indexed": true,
          "internalType": "address",
          "name": "nftAddress",
          "type": "address"
        },
        {
          "indexed": true,
          "internalType": "uint256",
          "name": "tokenId",
          "type": "uint256"
        }
      ],
      "name": "ItemCanceled",
      "type": "event"
    },
    {
      "anonymous": false,
      "inputs": [
        {
          "indexed": true,
          "internalType": "address",
          "name": "seller",
          "type": "address"
        },
        {
          "indexed": true,
          "internalType": "address",
          "name": "nftAddress",
          "type": "address"
        },
        {
          "indexed": true,
          "internalType": "uint256",
          "name": "tokenId",
          "type": "uint256"
        },
        {
          "indexed": false,
          "internalType": "uint256",
          "name": "price",
          "type": "uint256"
        }
      ],
      "name": "ItemListed",
      "type": "event"
    },
    {
      "inputs": [
        {
          "internalType": "address",
          "name": "nftAddress",
          "type": "address"
        },
        {
          "internalType": "uint256",
          "name": "tokenId",
          "type": "uint256"
        }
      ],
      "name": "buyItem",
      "outputs": [
        {
          "internalType": "string",
          "name": "",
          "type": "string"
        }
      ],
      "stateMutability": "payable",
      "type": "function"
    },
    {
      "inputs": [
        {
          "internalType": "address",
          "name": "nftAddress",
          "type": "address"
        },
        {
          "internalType": "uint256",
          "name": "tokenId",
          "type": "uint256"
        }
      ],
      "name": "cancelListing",
      "outputs": [
        {
          "internalType": "string",
          "name": "",
          "type": "string"
        }
      ],
      "stateMutability": "nonpayable",
      "type": "function"
    },
    {
      "inputs": [
        {
          "internalType": "address",
          "name": "nftAddress",
          "type": "address"
        },
        {
          "internalType": "uint256",
          "name": "tokenId",
          "type": "uint256"
        }
      ],
      "name": "getASListing",
      "outputs": [
        {
          "components": [
            {
              "internalType": "address",
              "name": "owner",
              "type": "address"
            },
            {
              "internalType": "address",
              "name": "nftContract",
              "type": "address"
            },
            {
              "internalType": "uint256",
              "name": "tokenId",
              "type": "uint256"
            },
            {
              "internalType": "uint256",
              "name": "price",
              "type": "uint256"
            }
          ],
          "internalType": "struct ASE_Proxy.Listing_sell",
          "name": "",
          "type": "tuple"
        }
      ],
      "stateMutability": "view",
      "type": "function"
    },
    {
      "inputs": [],
      "name": "getImplAddrs",
      "outputs": [
        {
          "internalType": "address",
          "name": "",
          "type": "address"
        }
      ],
      "stateMutability": "view",
      "type": "function"
    },
    {
      "inputs": [],
      "name": "getProceeds",
      "outputs": [
        {
          "internalType": "uint256",
          "name": "",
          "type": "uint256"
        }
      ],
      "stateMutability": "view",
      "type": "function"
    },
    {
      "inputs": [
        {
          "internalType": "address",
          "name": "nftAddress",
          "type": "address"
        }
      ],
      "name": "getSListedAdddressTokens",
      "outputs": [
        {
          "internalType": "uint256[]",
          "name": "",
          "type": "uint256[]"
        }
      ],
      "stateMutability": "view",
      "type": "function"
    },
    {
      "inputs": [],
      "name": "getSListedAdddresses",
      "outputs": [
        {
          "internalType": "address[]",
          "name": "",
          "type": "address[]"
        }
      ],
      "stateMutability": "view",
      "type": "function"
    },
    {
      "inputs": [
        {
          "internalType": "address",
          "name": "nftContract",
          "type": "address"
        }
      ],
      "name": "isNFT",
      "outputs": [
        {
          "internalType": "bool",
          "name": "",
          "type": "bool"
        }
      ],
      "stateMutability": "view",
      "type": "function"
    },
    {
      "inputs": [
        {
          "internalType": "address",
          "name": "nftAddress",
          "type": "address"
        },
        {
          "internalType": "uint256",
          "name": "tokenId",
          "type": "uint256"
        },
        {
          "internalType": "uint256",
          "name": "price",
          "type": "uint256"
        }
      ],
      "name": "listItem",
      "outputs": [
        {
          "internalType": "string",
          "name": "",
          "type": "string"
        }
      ],
      "stateMutability": "nonpayable",
      "type": "function"
    },
    {
      "inputs": [
        {
          "internalType": "address",
          "name": "newImplAddrs",
          "type": "address"
        }
      ],
      "name": "updateImplContract",
      "outputs": [],
      "stateMutability": "nonpayable",
      "type": "function"
    },
    {
      "inputs": [
        {
          "internalType": "address",
          "name": "nftAddress",
          "type": "address"
        },
        {
          "internalType": "uint256",
          "name": "tokenId",
          "type": "uint256"
        },
        {
          "internalType": "uint256",
          "name": "newPrice",
          "type": "uint256"
        }
      ],
      "name": "updateListing",
      "outputs": [
        {
          "internalType": "string",
          "name": "",
          "type": "string"
        }
      ],
      "stateMutability": "nonpayable",
      "type": "function"
    },
    {
      "inputs": [],
      "name": "withdrawProceeds",
      "outputs": [
        {
          "internalType": "string",
          "name": "",
          "type": "string"
        }
      ],
      "stateMutability": "nonpayable",
      "type": "function"
    }
  ],
  "bytecode": "0x6080604052662386f26fc100006002553480156200001c57600080fd5b5060405162001ae638038062001ae683398181016040528101906200004291906200013d565b600160008190555033600160006101000a81548173ffffffffffffffffffffffffffffffffffffffff021916908373ffffffffffffffffffffffffffffffffffffffff16021790555080600960006101000a81548173ffffffffffffffffffffffffffffffffffffffff021916908373ffffffffffffffffffffffffffffffffffffffff160217905550506200016f565b600080fd5b600073ffffffffffffffffffffffffffffffffffffffff82169050919050565b60006200010582620000d8565b9050919050565b6200011781620000f8565b81146200012357600080fd5b50565b60008151905062000137816200010c565b92915050565b600060208284031215620001565762000155620000d3565b5b6000620001668482850162000126565b91505092915050565b611967806200017f6000396000f3fe6080604052600436106100a75760003560e01c80639f37092a116100645780639f37092a146101be578063b2ddee06146101ee578063b31b85c91461022b578063be58725114610268578063cc6b11b1146102a5578063f772adf1146102e2576100a7565b8063341a0b8a146100ac5780636ae012c8146100d757806383bd9587146101025780638524528f1461012d57806389bfd38f146101565780639038e69314610193575b600080fd5b3480156100b857600080fd5b506100c161031f565b6040516100ce9190611107565b60405180910390f35b3480156100e357600080fd5b506100ec610336565b6040516100f99190611138565b60405180910390f35b34801561010e57600080fd5b50610117610360565b604051610124919061116c565b60405180910390f35b34801561013957600080fd5b50610154600480360381019061014f91906111c7565b6103a7565b005b34801561016257600080fd5b5061017d60048036038101906101789190611220565b610529565b60405161018a9190611303565b60405180910390f35b34801561019f57600080fd5b506101a86106aa565b6040516101b59190611303565b60405180910390f35b6101d860048036038101906101d39190611325565b610818565b6040516101e59190611303565b60405180910390f35b3480156101fa57600080fd5b5061021560048036038101906102109190611325565b610996565b6040516102229190611303565b60405180910390f35b34801561023757600080fd5b50610252600480360381019061024d91906111c7565b610b14565b60405161025f9190611380565b60405180910390f35b34801561027457600080fd5b5061028f600480360381019061028a91906111c7565b610bca565b60405161029c9190611459565b60405180910390f35b3480156102b157600080fd5b506102cc60048036038101906102c79190611325565b610c20565b6040516102d991906114d0565b60405180910390f35b3480156102ee57600080fd5b5061030960048036038101906103049190611220565b610d4b565b6040516103169190611303565b60405180910390f35b6060600061032d6006610ecc565b90508091505090565b6000600960009054906101000a900473ffffffffffffffffffffffffffffffffffffffff16905090565b6000600460003373ffffffffffffffffffffffffffffffffffffffff1673ffffffffffffffffffffffffffffffffffffffff16815260200190815260200160002054905090565b6103af610eed565b600160009054906101000a900473ffffffffffffffffffffffffffffffffffffffff1673ffffffffffffffffffffffffffffffffffffffff163373ffffffffffffffffffffffffffffffffffffffff161461043f576040517f08c379a00000000000000000000000000000000000000000000000000000000081526004016104369061155d565b60405180910390fd5b80600960006101000a81548173ffffffffffffffffffffffffffffffffffffffff021916908373ffffffffffffffffffffffffffffffffffffffff160217905550600960009054906101000a900473ffffffffffffffffffffffffffffffffffffffff1673ffffffffffffffffffffffffffffffffffffffff16600160009054906101000a900473ffffffffffffffffffffffffffffffffffffffff1673ffffffffffffffffffffffffffffffffffffffff167f1ed34c9a7b236ee6031785cd9ca32de930e1ae39020c1279886b687a307e7fcb60405160405180910390a3610526610f3c565b50565b6060600080600960009054906101000a900473ffffffffffffffffffffffffffffffffffffffff1673ffffffffffffffffffffffffffffffffffffffff1686868660405160240161057c9392919061157d565b6040516020818303038152906040527f89bfd38f000000000000000000000000000000000000000000000000000000007bffffffffffffffffffffffffffffffffffffffffffffffffffffffff19166020820180517bffffffffffffffffffffffffffffffffffffffffffffffffffffffff838183161783525050505060405161060691906115fb565b600060405180830381855af49150503d8060008114610641576040519150601f19603f3d011682016040523d82523d6000602084013e610646565b606091505b50915091508161068b576040517f08c379a00000000000000000000000000000000000000000000000000000000081526004016106829061165e565b60405180910390fd5b8080602001905181019061069f91906117a4565b925050509392505050565b6060600080600960009054906101000a900473ffffffffffffffffffffffffffffffffffffffff1673ffffffffffffffffffffffffffffffffffffffff166040516024016040516020818303038152906040527f9038e693000000000000000000000000000000000000000000000000000000007bffffffffffffffffffffffffffffffffffffffffffffffffffffffff19166020820180517bffffffffffffffffffffffffffffffffffffffffffffffffffffffff838183161783525050505060405161077891906115fb565b600060405180830381855af49150503d80600081146107b3576040519150601f19603f3d011682016040523d82523d6000602084013e6107b8565b606091505b5091509150816107fd576040517f08c379a00000000000000000000000000000000000000000000000000000000081526004016107f49061165e565b60405180910390fd5b8080602001905181019061081191906117a4565b9250505090565b6060600080600960009054906101000a900473ffffffffffffffffffffffffffffffffffffffff1673ffffffffffffffffffffffffffffffffffffffff1685856040516024016108699291906117ed565b6040516020818303038152906040527f9f37092a000000000000000000000000000000000000000000000000000000007bffffffffffffffffffffffffffffffffffffffffffffffffffffffff19166020820180517bffffffffffffffffffffffffffffffffffffffffffffffffffffffff83818316178352505050506040516108f391906115fb565b600060405180830381855af49150503d806000811461092e576040519150601f19603f3d011682016040523d82523d6000602084013e610933565b606091505b509150915081610978576040517f08c379a000000000000000000000000000000000000000000000000000000000815260040161096f9061165e565b60405180910390fd5b8080602001905181019061098c91906117a4565b9250505092915050565b6060600080600960009054906101000a900473ffffffffffffffffffffffffffffffffffffffff1673ffffffffffffffffffffffffffffffffffffffff1685856040516024016109e79291906117ed565b6040516020818303038152906040527fb2ddee06000000000000000000000000000000000000000000000000000000007bffffffffffffffffffffffffffffffffffffffffffffffffffffffff19166020820180517bffffffffffffffffffffffffffffffffffffffffffffffffffffffff8381831617835250505050604051610a7191906115fb565b600060405180830381855af49150503d8060008114610aac576040519150601f19603f3d011682016040523d82523d6000602084013e610ab1565b606091505b509150915081610af6576040517f08c379a0000000000000000000000000000000000000000000000000000000008152600401610aed9061165e565b60405180910390fd5b80806020019051810190610b0a91906117a4565b9250505092915050565b600080600090508273ffffffffffffffffffffffffffffffffffffffff166301ffc9a77f80ac58cd000000000000000000000000000000000000000000000000000000006040518263ffffffff1660e01b8152600401610b749190611851565b602060405180830381865afa925050508015610bae57506040513d601f19601f82011682018060405250810190610bab9190611898565b60015b610bbc576000915050610bc5565b80915050809150505b919050565b60606000610c15600560008573ffffffffffffffffffffffffffffffffffffffff1673ffffffffffffffffffffffffffffffffffffffff168152602001908152602001600020610f46565b905080915050919050565b610c28610fc3565b600360008473ffffffffffffffffffffffffffffffffffffffff1673ffffffffffffffffffffffffffffffffffffffff16815260200190815260200160002060008381526020019081526020016000206040518060800160405290816000820160009054906101000a900473ffffffffffffffffffffffffffffffffffffffff1673ffffffffffffffffffffffffffffffffffffffff1673ffffffffffffffffffffffffffffffffffffffff1681526020016001820160009054906101000a900473ffffffffffffffffffffffffffffffffffffffff1673ffffffffffffffffffffffffffffffffffffffff1673ffffffffffffffffffffffffffffffffffffffff16815260200160028201548152602001600382015481525050905092915050565b6060600080600960009054906101000a900473ffffffffffffffffffffffffffffffffffffffff1673ffffffffffffffffffffffffffffffffffffffff16868686604051602401610d9e9392919061157d565b6040516020818303038152906040527ff772adf1000000000000000000000000000000000000000000000000000000007bffffffffffffffffffffffffffffffffffffffffffffffffffffffff19166020820180517bffffffffffffffffffffffffffffffffffffffffffffffffffffffff8381831617835250505050604051610e2891906115fb565b600060405180830381855af49150503d8060008114610e63576040519150601f19603f3d011682016040523d82523d6000602084013e610e68565b606091505b509150915081610ead576040517f08c379a0000000000000000000000000000000000000000000000000000000008152600401610ea49061165e565b60405180910390fd5b80806020019051810190610ec191906117a4565b925050509392505050565b60606000610edc83600001610f67565b905060608190508092505050919050565b600260005403610f32576040517f08c379a0000000000000000000000000000000000000000000000000000000008152600401610f2990611911565b60405180910390fd5b6002600081905550565b6001600081905550565b60606000610f5683600001610f67565b905060608190508092505050919050565b606081600001805480602002602001604051908101604052809291908181526020018280548015610fb757602002820191906000526020600020905b815481526020019060010190808311610fa3575b50505050509050919050565b6040518060800160405280600073ffffffffffffffffffffffffffffffffffffffff168152602001600073ffffffffffffffffffffffffffffffffffffffff16815260200160008152602001600081525090565b600081519050919050565b600082825260208201905092915050565b6000819050602082019050919050565b600073ffffffffffffffffffffffffffffffffffffffff82169050919050565b600061106e82611043565b9050919050565b61107e81611063565b82525050565b60006110908383611075565b60208301905092915050565b6000602082019050919050565b60006110b482611017565b6110be8185611022565b93506110c983611033565b8060005b838110156110fa5781516110e18882611084565b97506110ec8361109c565b9250506001810190506110cd565b5085935050505092915050565b6000602082019050818103600083015261112181846110a9565b905092915050565b61113281611063565b82525050565b600060208201905061114d6000830184611129565b92915050565b6000819050919050565b61116681611153565b82525050565b6000602082019050611181600083018461115d565b92915050565b6000604051905090565b600080fd5b600080fd5b6111a481611063565b81146111af57600080fd5b50565b6000813590506111c18161119b565b92915050565b6000602082840312156111dd576111dc611191565b5b60006111eb848285016111b2565b91505092915050565b6111fd81611153565b811461120857600080fd5b50565b60008135905061121a816111f4565b92915050565b60008060006060848603121561123957611238611191565b5b6000611247868287016111b2565b93505060206112588682870161120b565b92505060406112698682870161120b565b9150509250925092565b600081519050919050565b600082825260208201905092915050565b60005b838110156112ad578082015181840152602081019050611292565b60008484015250505050565b6000601f19601f8301169050919050565b60006112d582611273565b6112df818561127e565b93506112ef81856020860161128f565b6112f8816112b9565b840191505092915050565b6000602082019050818103600083015261131d81846112ca565b905092915050565b6000806040838503121561133c5761133b611191565b5b600061134a858286016111b2565b925050602061135b8582860161120b565b9150509250929050565b60008115159050919050565b61137a81611365565b82525050565b60006020820190506113956000830184611371565b92915050565b600081519050919050565b600082825260208201905092915050565b6000819050602082019050919050565b6113d081611153565b82525050565b60006113e283836113c7565b60208301905092915050565b6000602082019050919050565b60006114068261139b565b61141081856113a6565b935061141b836113b7565b8060005b8381101561144c57815161143388826113d6565b975061143e836113ee565b92505060018101905061141f565b5085935050505092915050565b6000602082019050818103600083015261147381846113fb565b905092915050565b6080820160008201516114916000850182611075565b5060208201516114a46020850182611075565b5060408201516114b760408501826113c7565b5060608201516114ca60608501826113c7565b50505050565b60006080820190506114e5600083018461147b565b92915050565b7f6d61726b6574706c6163652063616e206f6e6c7920626520757067726164656460008201527f20627920746865206f776e657200000000000000000000000000000000000000602082015250565b6000611547602d8361127e565b9150611552826114eb565b604082019050919050565b600060208201905081810360008301526115768161153a565b9050919050565b60006060820190506115926000830186611129565b61159f602083018561115d565b6115ac604083018461115d565b949350505050565b600081519050919050565b600081905092915050565b60006115d5826115b4565b6115df81856115bf565b93506115ef81856020860161128f565b80840191505092915050565b600061160782846115ca565b915081905092915050565b7f7472616e73616374696f6e206661696c65640000000000000000000000000000600082015250565b600061164860128361127e565b915061165382611612565b602082019050919050565b600060208201905081810360008301526116778161163b565b9050919050565b600080fd5b600080fd5b7f4e487b7100000000000000000000000000000000000000000000000000000000600052604160045260246000fd5b6116c0826112b9565b810181811067ffffffffffffffff821117156116df576116de611688565b5b80604052505050565b60006116f2611187565b90506116fe82826116b7565b919050565b600067ffffffffffffffff82111561171e5761171d611688565b5b611727826112b9565b9050602081019050919050565b600061174761174284611703565b6116e8565b90508281526020810184848401111561176357611762611683565b5b61176e84828561128f565b509392505050565b600082601f83011261178b5761178a61167e565b5b815161179b848260208601611734565b91505092915050565b6000602082840312156117ba576117b9611191565b5b600082015167ffffffffffffffff8111156117d8576117d7611196565b5b6117e484828501611776565b91505092915050565b60006040820190506118026000830185611129565b61180f602083018461115d565b9392505050565b60007fffffffff0000000000000000000000000000000000000000000000000000000082169050919050565b61184b81611816565b82525050565b60006020820190506118666000830184611842565b92915050565b61187581611365565b811461188057600080fd5b50565b6000815190506118928161186c565b92915050565b6000602082840312156118ae576118ad611191565b5b60006118bc84828501611883565b91505092915050565b7f5265656e7472616e637947756172643a207265656e7472616e742063616c6c00600082015250565b60006118fb601f8361127e565b9150611906826118c5565b602082019050919050565b6000602082019050818103600083015261192a816118ee565b905091905056fea26469706673582212205a215b24f2e015a47bebbc5d9f5a5799fe2ed45843dce8e39b576633308285c164736f6c63430008110033",
  "linkReferences": {},
  "deployedLinkReferences": {}
}