{
  "_format": "hh-sol-artifact-1",
  "contractName": "AIE_Proxy",
  "sourceName": "contracts/AIEProxy.sol",
  "abi": [
    {
      "inputs": [
        {
          "internalType": "address",
          "name": "_implContract",
          "type": "address"
        }
      ],
      "stateMutability": "nonpayable",
      "type": "constructor"
    },
    {
      "anonymous": false,
      "inputs": [
        {
          "indexed": true,
          "internalType": "address",
          "name": "owner",
          "type": "address"
        },
        {
          "indexed": true,
          "internalType": "address",
          "name": "user",
          "type": "address"
        },
        {
          "indexed": true,
          "internalType": "address",
          "name": "nftContract",
          "type": "address"
        },
        {
          "indexed": false,
          "internalType": "uint256",
          "name": "tokenId",
          "type": "uint256"
        },
        {
          "indexed": false,
          "internalType": "uint256",
          "name": "pricePerDay",
          "type": "uint256"
        }
      ],
      "name": "INSNFTListed",
      "type": "event"
    },
    {
      "anonymous": false,
      "inputs": [
        {
          "indexed": true,
          "internalType": "address",
          "name": "marketowner",
          "type": "address"
        },
        {
          "indexed": true,
          "internalType": "address",
          "name": "newImplAddrs",
          "type": "address"
        }
      ],
      "name": "ImplUpgrade",
      "type": "event"
    },
    {
      "anonymous": false,
      "inputs": [
        {
          "indexed": true,
          "internalType": "address",
          "name": "owner",
          "type": "address"
        },
        {
          "indexed": true,
          "internalType": "address",
          "name": "user",
          "type": "address"
        },
        {
          "indexed": true,
          "internalType": "address",
          "name": "nftContract",
          "type": "address"
        },
        {
          "indexed": false,
          "internalType": "uint256",
          "name": "tokenId",
          "type": "uint256"
        },
        {
          "indexed": false,
          "internalType": "uint64",
          "name": "expires",
          "type": "uint64"
        },
        {
          "indexed": false,
          "internalType": "uint64",
          "name": "insCount",
          "type": "uint64"
        },
        {
          "indexed": false,
          "internalType": "uint64",
          "name": "insIndex",
          "type": "uint64"
        },
        {
          "indexed": false,
          "internalType": "uint256",
          "name": "insAmount",
          "type": "uint256"
        },
        {
          "indexed": false,
          "internalType": "uint256",
          "name": "totalPaid",
          "type": "uint256"
        }
      ],
      "name": "NFTINSPaid",
      "type": "event"
    },
    {
      "anonymous": false,
      "inputs": [
        {
          "indexed": true,
          "internalType": "address",
          "name": "unlistSender",
          "type": "address"
        },
        {
          "indexed": true,
          "internalType": "address",
          "name": "nftContract",
          "type": "address"
        },
        {
          "indexed": true,
          "internalType": "uint256",
          "name": "tokenId",
          "type": "uint256"
        }
      ],
      "name": "NFTUnlisted",
      "type": "event"
    },
    {
      "inputs": [
        {
          "internalType": "address",
          "name": "nftAddress",
          "type": "address"
        },
        {
          "internalType": "uint256",
          "name": "tokenId",
          "type": "uint256"
        }
      ],
      "name": "getAInsListing",
      "outputs": [
        {
          "components": [
            {
              "internalType": "address",
              "name": "owner",
              "type": "address"
            },
            {
              "internalType": "address",
              "name": "user",
              "type": "address"
            },
            {
              "internalType": "address",
              "name": "nftContract",
              "type": "address"
            },
            {
              "internalType": "uint256",
              "name": "tokenId",
              "type": "uint256"
            },
            {
              "internalType": "uint256",
              "name": "pricePerDay",
              "type": "uint256"
            },
            {
              "internalType": "uint64",
              "name": "installmentCount",
              "type": "uint64"
            },
            {
              "internalType": "uint64",
              "name": "expires",
              "type": "uint64"
            },
            {
              "internalType": "uint64",
              "name": "installmentIndex",
              "type": "uint64"
            },
            {
              "internalType": "uint256",
              "name": "paidIns",
              "type": "uint256"
            }
          ],
          "internalType": "struct AIE_Proxy.Listing_installment",
          "name": "",
          "type": "tuple"
        }
      ],
      "stateMutability": "view",
      "type": "function"
    },
    {
      "inputs": [],
      "name": "getImplAddrs",
      "outputs": [
        {
          "internalType": "address",
          "name": "",
          "type": "address"
        }
      ],
      "stateMutability": "view",
      "type": "function"
    },
    {
      "inputs": [
        {
          "internalType": "address",
          "name": "nftAddress",
          "type": "address"
        }
      ],
      "name": "getInsListedAdddressTokens",
      "outputs": [
        {
          "internalType": "uint256[]",
          "name": "",
          "type": "uint256[]"
        }
      ],
      "stateMutability": "view",
      "type": "function"
    },
    {
      "inputs": [],
      "name": "getInsListedAdddresses",
      "outputs": [
        {
          "internalType": "address[]",
          "name": "",
          "type": "address[]"
        }
      ],
      "stateMutability": "view",
      "type": "function"
    },
    {
      "inputs": [],
      "name": "getListingFee",
      "outputs": [
        {
          "internalType": "uint256",
          "name": "",
          "type": "uint256"
        }
      ],
      "stateMutability": "view",
      "type": "function"
    },
    {
      "inputs": [
        {
          "internalType": "address",
          "name": "nftAddress",
          "type": "address"
        },
        {
          "internalType": "uint256",
          "name": "tokenId",
          "type": "uint256"
        },
        {
          "internalType": "uint64",
          "name": "installmentCount",
          "type": "uint64"
        }
      ],
      "name": "getNftInstallment",
      "outputs": [
        {
          "internalType": "uint256",
          "name": "",
          "type": "uint256"
        }
      ],
      "stateMutability": "view",
      "type": "function"
    },
    {
      "inputs": [
        {
          "internalType": "address",
          "name": "nftContract",
          "type": "address"
        }
      ],
      "name": "isNFT",
      "outputs": [
        {
          "internalType": "bool",
          "name": "",
          "type": "bool"
        }
      ],
      "stateMutability": "view",
      "type": "function"
    },
    {
      "inputs": [
        {
          "internalType": "address",
          "name": "nftContract",
          "type": "address"
        }
      ],
      "name": "isRentableNFT",
      "outputs": [
        {
          "internalType": "bool",
          "name": "",
          "type": "bool"
        }
      ],
      "stateMutability": "view",
      "type": "function"
    },
    {
      "inputs": [
        {
          "internalType": "address",
          "name": "nftAddress",
          "type": "address"
        },
        {
          "internalType": "uint256",
          "name": "tokenId",
          "type": "uint256"
        },
        {
          "internalType": "uint256",
          "name": "pricePerDay",
          "type": "uint256"
        }
      ],
      "name": "listInsBasedNFT",
      "outputs": [
        {
          "internalType": "string",
          "name": "",
          "type": "string"
        }
      ],
      "stateMutability": "payable",
      "type": "function"
    },
    {
      "inputs": [
        {
          "internalType": "address",
          "name": "nftAddress",
          "type": "address"
        },
        {
          "internalType": "uint256",
          "name": "tokenId",
          "type": "uint256"
        }
      ],
      "name": "payNFTIns",
      "outputs": [
        {
          "internalType": "string",
          "name": "",
          "type": "string"
        }
      ],
      "stateMutability": "payable",
      "type": "function"
    },
    {
      "inputs": [
        {
          "internalType": "address",
          "name": "nftAddress",
          "type": "address"
        },
        {
          "internalType": "uint256",
          "name": "tokenId",
          "type": "uint256"
        },
        {
          "internalType": "uint64",
          "name": "numDays",
          "type": "uint64"
        }
      ],
      "name": "rentINSNFT",
      "outputs": [
        {
          "internalType": "string",
          "name": "",
          "type": "string"
        }
      ],
      "stateMutability": "payable",
      "type": "function"
    },
    {
      "inputs": [
        {
          "internalType": "address",
          "name": "nftAddress",
          "type": "address"
        },
        {
          "internalType": "uint256",
          "name": "tokenId",
          "type": "uint256"
        }
      ],
      "name": "unlistINSNFT",
      "outputs": [
        {
          "internalType": "string",
          "name": "",
          "type": "string"
        }
      ],
      "stateMutability": "nonpayable",
      "type": "function"
    },
    {
      "inputs": [
        {
          "internalType": "address",
          "name": "newImplAddrs",
          "type": "address"
        }
      ],
      "name": "updateImplContract",
      "outputs": [],
      "stateMutability": "nonpayable",
      "type": "function"
    }
  ],
  "bytecode": "0x6080604052662386f26fc10000600255600a600360006101000a81548167ffffffffffffffff021916908367ffffffffffffffff1602179055503480156200004657600080fd5b50604051620023c8380380620023c883398181016040528101906200006c919062000167565b600160008190555033600160006101000a81548173ffffffffffffffffffffffffffffffffffffffff021916908373ffffffffffffffffffffffffffffffffffffffff16021790555080600960006101000a81548173ffffffffffffffffffffffffffffffffffffffff021916908373ffffffffffffffffffffffffffffffffffffffff1602179055505062000199565b600080fd5b600073ffffffffffffffffffffffffffffffffffffffff82169050919050565b60006200012f8262000102565b9050919050565b620001418162000122565b81146200014d57600080fd5b50565b600081519050620001618162000136565b92915050565b60006020828403121562000180576200017f620000fd565b5b6000620001908482850162000150565b91505092915050565b61221f80620001a96000396000f3fe6080604052600436106100c25760003560e01c806393f332491161007f578063c80e712f11610059578063c80e712f14610295578063cebd5145146102c5578063d4a55a74146102f5578063e9a6f4f614610332576100c2565b806393f33249146101f0578063b31b85c91461022d578063b8fe6abe1461026a576100c2565b80632f4a073a146100c757806337feab07146101045780634b30261c1461012f5780636ae012c81461015f5780636bf510bf1461018a5780638524528f146101c7575b600080fd5b3480156100d357600080fd5b506100ee60048036038101906100e9919061154e565b61036f565b6040516100fb9190611643565b60405180910390f35b34801561011057600080fd5b506101196103c5565b6040516101269190611723565b60405180910390f35b61014960048036038101906101449190611771565b6103dc565b6040516101569190611841565b60405180910390f35b34801561016b57600080fd5b5061017461055a565b6040516101819190611872565b60405180910390f35b34801561019657600080fd5b506101b160048036038101906101ac9190611771565b610584565b6040516101be9190611841565b60405180910390f35b3480156101d357600080fd5b506101ee60048036038101906101e9919061154e565b610702565b005b3480156101fc57600080fd5b50610217600480360381019061021291906118cd565b610884565b604051610224919061192f565b60405180910390f35b34801561023957600080fd5b50610254600480360381019061024f919061154e565b610bec565b6040516102619190611965565b60405180910390f35b34801561027657600080fd5b5061027f610ca2565b60405161028c919061192f565b60405180910390f35b6102af60048036038101906102aa9190611980565b610cac565b6040516102bc9190611841565b60405180910390f35b6102df60048036038101906102da91906118cd565b610e2d565b6040516102ec9190611841565b60405180910390f35b34801561030157600080fd5b5061031c60048036038101906103179190611771565b610fae565b6040516103299190611a99565b60405180910390f35b34801561033e57600080fd5b506103596004803603810190610354919061154e565b6111d0565b6040516103669190611965565b60405180910390f35b606060006103ba600560008573ffffffffffffffffffffffffffffffffffffffff1673ffffffffffffffffffffffffffffffffffffffff168152602001908152602001600020611339565b905080915050919050565b606060006103d3600661135a565b90508091505090565b6060600080600960009054906101000a900473ffffffffffffffffffffffffffffffffffffffff1673ffffffffffffffffffffffffffffffffffffffff16858560405160240161042d929190611ab5565b6040516020818303038152906040527f4b30261c000000000000000000000000000000000000000000000000000000007bffffffffffffffffffffffffffffffffffffffffffffffffffffffff19166020820180517bffffffffffffffffffffffffffffffffffffffffffffffffffffffff83818316178352505050506040516104b79190611b25565b600060405180830381855af49150503d80600081146104f2576040519150601f19603f3d011682016040523d82523d6000602084013e6104f7565b606091505b50915091508161053c576040517f08c379a000000000000000000000000000000000000000000000000000000000815260040161053390611b88565b60405180910390fd5b808060200190518101906105509190611cce565b9250505092915050565b6000600960009054906101000a900473ffffffffffffffffffffffffffffffffffffffff16905090565b6060600080600960009054906101000a900473ffffffffffffffffffffffffffffffffffffffff1673ffffffffffffffffffffffffffffffffffffffff1685856040516024016105d5929190611ab5565b6040516020818303038152906040527f6bf510bf000000000000000000000000000000000000000000000000000000007bffffffffffffffffffffffffffffffffffffffffffffffffffffffff19166020820180517bffffffffffffffffffffffffffffffffffffffffffffffffffffffff838183161783525050505060405161065f9190611b25565b600060405180830381855af49150503d806000811461069a576040519150601f19603f3d011682016040523d82523d6000602084013e61069f565b606091505b5091509150816106e4576040517f08c379a00000000000000000000000000000000000000000000000000000000081526004016106db90611b88565b60405180910390fd5b808060200190518101906106f89190611cce565b9250505092915050565b61070a61137b565b600160009054906101000a900473ffffffffffffffffffffffffffffffffffffffff1673ffffffffffffffffffffffffffffffffffffffff163373ffffffffffffffffffffffffffffffffffffffff161461079a576040517f08c379a000000000000000000000000000000000000000000000000000000000815260040161079190611d89565b60405180910390fd5b80600960006101000a81548173ffffffffffffffffffffffffffffffffffffffff021916908373ffffffffffffffffffffffffffffffffffffffff160217905550600960009054906101000a900473ffffffffffffffffffffffffffffffffffffffff1673ffffffffffffffffffffffffffffffffffffffff16600160009054906101000a900473ffffffffffffffffffffffffffffffffffffffff1673ffffffffffffffffffffffffffffffffffffffff167f1ed34c9a7b236ee6031785cd9ca32de930e1ae39020c1279886b687a307e7fcb60405160405180910390a36108816113ca565b50565b6000600360009054906101000a900467ffffffffffffffff1667ffffffffffffffff168267ffffffffffffffff1611156108f3576040517f08c379a00000000000000000000000000000000000000000000000000000000081526004016108ea90611e41565b60405180910390fd5b60008267ffffffffffffffff1611610940576040517f08c379a000000000000000000000000000000000000000000000000000000000815260040161093790611ed3565b60405180910390fd5b6000600460008673ffffffffffffffffffffffffffffffffffffffff1673ffffffffffffffffffffffffffffffffffffffff1681526020019081526020016000206000858152602001908152602001600020905060008160050160109054906101000a900467ffffffffffffffff16905060006001826109c09190611f22565b905060008360050160009054906101000a900467ffffffffffffffff1667ffffffffffffffff161115610a60578260050160009054906101000a900467ffffffffffffffff1694508467ffffffffffffffff168167ffffffffffffffff161115610a5f576040517f08c379a0000000000000000000000000000000000000000000000000000000008152600401610a5690611faa565b60405180910390fd5b5b600080600960009054906101000a900473ffffffffffffffffffffffffffffffffffffffff1673ffffffffffffffffffffffffffffffffffffffff16856006015488876004015486604051602401610abb9493929190611fd9565b6040516020818303038152906040527f6d48cf02000000000000000000000000000000000000000000000000000000007bffffffffffffffffffffffffffffffffffffffffffffffffffffffff19166020820180517bffffffffffffffffffffffffffffffffffffffffffffffffffffffff8381831617835250505050604051610b459190611b25565b600060405180830381855afa9150503d8060008114610b80576040519150601f19603f3d011682016040523d82523d6000602084013e610b85565b606091505b509150915081610bca576040517f08c379a0000000000000000000000000000000000000000000000000000000008152600401610bc190611b88565b60405180910390fd5b80806020019051810190610bde9190612033565b955050505050509392505050565b600080600090508273ffffffffffffffffffffffffffffffffffffffff166301ffc9a77f80ac58cd000000000000000000000000000000000000000000000000000000006040518263ffffffff1660e01b8152600401610c4c919061209b565b602060405180830381865afa925050508015610c8657506040513d601f19601f82011682018060405250810190610c8391906120e2565b60015b610c94576000915050610c9d565b80915050809150505b919050565b6000600254905090565b6060600080600960009054906101000a900473ffffffffffffffffffffffffffffffffffffffff1673ffffffffffffffffffffffffffffffffffffffff16868686604051602401610cff9392919061210f565b6040516020818303038152906040527fc80e712f000000000000000000000000000000000000000000000000000000007bffffffffffffffffffffffffffffffffffffffffffffffffffffffff19166020820180517bffffffffffffffffffffffffffffffffffffffffffffffffffffffff8381831617835250505050604051610d899190611b25565b600060405180830381855af49150503d8060008114610dc4576040519150601f19603f3d011682016040523d82523d6000602084013e610dc9565b606091505b509150915081610e0e576040517f08c379a0000000000000000000000000000000000000000000000000000000008152600401610e0590611b88565b60405180910390fd5b80806020019051810190610e229190611cce565b925050509392505050565b6060600080600960009054906101000a900473ffffffffffffffffffffffffffffffffffffffff1673ffffffffffffffffffffffffffffffffffffffff16868686604051602401610e8093929190612146565b6040516020818303038152906040527fcebd5145000000000000000000000000000000000000000000000000000000007bffffffffffffffffffffffffffffffffffffffffffffffffffffffff19166020820180517bffffffffffffffffffffffffffffffffffffffffffffffffffffffff8381831617835250505050604051610f0a9190611b25565b600060405180830381855af49150503d8060008114610f45576040519150601f19603f3d011682016040523d82523d6000602084013e610f4a565b606091505b509150915081610f8f576040517f08c379a0000000000000000000000000000000000000000000000000000000008152600401610f8690611b88565b60405180910390fd5b80806020019051810190610fa39190611cce565b925050509392505050565b610fb6611430565b600460008473ffffffffffffffffffffffffffffffffffffffff1673ffffffffffffffffffffffffffffffffffffffff1681526020019081526020016000206000838152602001908152602001600020604051806101200160405290816000820160009054906101000a900473ffffffffffffffffffffffffffffffffffffffff1673ffffffffffffffffffffffffffffffffffffffff1673ffffffffffffffffffffffffffffffffffffffff1681526020016001820160009054906101000a900473ffffffffffffffffffffffffffffffffffffffff1673ffffffffffffffffffffffffffffffffffffffff1673ffffffffffffffffffffffffffffffffffffffff1681526020016002820160009054906101000a900473ffffffffffffffffffffffffffffffffffffffff1673ffffffffffffffffffffffffffffffffffffffff1673ffffffffffffffffffffffffffffffffffffffff16815260200160038201548152602001600482015481526020016005820160009054906101000a900467ffffffffffffffff1667ffffffffffffffff1667ffffffffffffffff1681526020016005820160089054906101000a900467ffffffffffffffff1667ffffffffffffffff1667ffffffffffffffff1681526020016005820160109054906101000a900467ffffffffffffffff1667ffffffffffffffff1667ffffffffffffffff168152602001600682015481525050905092915050565b6000806000905060008373ffffffffffffffffffffffffffffffffffffffff166301ffc9a77fad092b5c000000000000000000000000000000000000000000000000000000006040518263ffffffff1660e01b8152600401611232919061209b565b602060405180830381865afa92505050801561126c57506040513d601f19601f8201168201806040525081019061126991906120e2565b60015b61127b57600092505050611334565b809250508373ffffffffffffffffffffffffffffffffffffffff166301ffc9a77f80ac58cd000000000000000000000000000000000000000000000000000000006040518263ffffffff1660e01b81526004016112d8919061209b565b602060405180830381865afa92505050801561131257506040513d601f19601f8201168201806040525081019061130f91906120e2565b60015b61132157600092505050611334565b8091505081801561132f5750805b925050505b919050565b60606000611349836000016113d4565b905060608190508092505050919050565b6060600061136a836000016113d4565b905060608190508092505050919050565b6002600054036113c0576040517f08c379a00000000000000000000000000000000000000000000000000000000081526004016113b7906121c9565b60405180910390fd5b6002600081905550565b6001600081905550565b60608160000180548060200260200160405190810160405280929190818152602001828054801561142457602002820191906000526020600020905b815481526020019060010190808311611410575b50505050509050919050565b604051806101200160405280600073ffffffffffffffffffffffffffffffffffffffff168152602001600073ffffffffffffffffffffffffffffffffffffffff168152602001600073ffffffffffffffffffffffffffffffffffffffff1681526020016000815260200160008152602001600067ffffffffffffffff168152602001600067ffffffffffffffff168152602001600067ffffffffffffffff168152602001600081525090565b6000604051905090565b600080fd5b600080fd5b600073ffffffffffffffffffffffffffffffffffffffff82169050919050565b600061151b826114f0565b9050919050565b61152b81611510565b811461153657600080fd5b50565b60008135905061154881611522565b92915050565b600060208284031215611564576115636114e6565b5b600061157284828501611539565b91505092915050565b600081519050919050565b600082825260208201905092915050565b6000819050602082019050919050565b6000819050919050565b6115ba816115a7565b82525050565b60006115cc83836115b1565b60208301905092915050565b6000602082019050919050565b60006115f08261157b565b6115fa8185611586565b935061160583611597565b8060005b8381101561163657815161161d88826115c0565b9750611628836115d8565b925050600181019050611609565b5085935050505092915050565b6000602082019050818103600083015261165d81846115e5565b905092915050565b600081519050919050565b600082825260208201905092915050565b6000819050602082019050919050565b61169a81611510565b82525050565b60006116ac8383611691565b60208301905092915050565b6000602082019050919050565b60006116d082611665565b6116da8185611670565b93506116e583611681565b8060005b838110156117165781516116fd88826116a0565b9750611708836116b8565b9250506001810190506116e9565b5085935050505092915050565b6000602082019050818103600083015261173d81846116c5565b905092915050565b61174e816115a7565b811461175957600080fd5b50565b60008135905061176b81611745565b92915050565b60008060408385031215611788576117876114e6565b5b600061179685828601611539565b92505060206117a78582860161175c565b9150509250929050565b600081519050919050565b600082825260208201905092915050565b60005b838110156117eb5780820151818401526020810190506117d0565b60008484015250505050565b6000601f19601f8301169050919050565b6000611813826117b1565b61181d81856117bc565b935061182d8185602086016117cd565b611836816117f7565b840191505092915050565b6000602082019050818103600083015261185b8184611808565b905092915050565b61186c81611510565b82525050565b60006020820190506118876000830184611863565b92915050565b600067ffffffffffffffff82169050919050565b6118aa8161188d565b81146118b557600080fd5b50565b6000813590506118c7816118a1565b92915050565b6000806000606084860312156118e6576118e56114e6565b5b60006118f486828701611539565b93505060206119058682870161175c565b9250506040611916868287016118b8565b9150509250925092565b611929816115a7565b82525050565b60006020820190506119446000830184611920565b92915050565b60008115159050919050565b61195f8161194a565b82525050565b600060208201905061197a6000830184611956565b92915050565b600080600060608486031215611999576119986114e6565b5b60006119a786828701611539565b93505060206119b88682870161175c565b92505060406119c98682870161175c565b9150509250925092565b6119dc8161188d565b82525050565b610120820160008201516119f96000850182611691565b506020820151611a0c6020850182611691565b506040820151611a1f6040850182611691565b506060820151611a3260608501826115b1565b506080820151611a4560808501826115b1565b5060a0820151611a5860a08501826119d3565b5060c0820151611a6b60c08501826119d3565b5060e0820151611a7e60e08501826119d3565b50610100820151611a936101008501826115b1565b50505050565b600061012082019050611aaf60008301846119e2565b92915050565b6000604082019050611aca6000830185611863565b611ad76020830184611920565b9392505050565b600081519050919050565b600081905092915050565b6000611aff82611ade565b611b098185611ae9565b9350611b198185602086016117cd565b80840191505092915050565b6000611b318284611af4565b915081905092915050565b7f7472616e73616374696f6e206661696c65640000000000000000000000000000600082015250565b6000611b726012836117bc565b9150611b7d82611b3c565b602082019050919050565b60006020820190508181036000830152611ba181611b65565b9050919050565b600080fd5b600080fd5b7f4e487b7100000000000000000000000000000000000000000000000000000000600052604160045260246000fd5b611bea826117f7565b810181811067ffffffffffffffff82111715611c0957611c08611bb2565b5b80604052505050565b6000611c1c6114dc565b9050611c288282611be1565b919050565b600067ffffffffffffffff821115611c4857611c47611bb2565b5b611c51826117f7565b9050602081019050919050565b6000611c71611c6c84611c2d565b611c12565b905082815260208101848484011115611c8d57611c8c611bad565b5b611c988482856117cd565b509392505050565b600082601f830112611cb557611cb4611ba8565b5b8151611cc5848260208601611c5e565b91505092915050565b600060208284031215611ce457611ce36114e6565b5b600082015167ffffffffffffffff811115611d0257611d016114eb565b5b611d0e84828501611ca0565b91505092915050565b7f6d61726b6574706c6163652063616e206f6e6c7920626520757067726164656460008201527f20627920746865206f776e657200000000000000000000000000000000000000602082015250565b6000611d73602d836117bc565b9150611d7e82611d17565b604082019050919050565b60006020820190508181036000830152611da281611d66565b9050919050565b7f696e7374616c6c6d656e7420636f756e74206d757374206d65206c657373207460008201527f68616e20746865206d6178696d756d20616c6c6f77656420696e7374616c6c6d60208201527f656e747300000000000000000000000000000000000000000000000000000000604082015250565b6000611e2b6044836117bc565b9150611e3682611da9565b606082019050919050565b60006020820190508181036000830152611e5a81611e1e565b9050919050565b7f696e7374616c6c6d656e7420636f756e74206d7573742062652067726561746560008201527f72207468616e2031000000000000000000000000000000000000000000000000602082015250565b6000611ebd6028836117bc565b9150611ec882611e61565b604082019050919050565b60006020820190508181036000830152611eec81611eb0565b9050919050565b7f4e487b7100000000000000000000000000000000000000000000000000000000600052601160045260246000fd5b6000611f2d8261188d565b9150611f388361188d565b9250828201905067ffffffffffffffff811115611f5857611f57611ef3565b5b92915050565b7f4e46542066756c6c792070616964000000000000000000000000000000000000600082015250565b6000611f94600e836117bc565b9150611f9f82611f5e565b602082019050919050565b60006020820190508181036000830152611fc381611f87565b9050919050565b611fd38161188d565b82525050565b6000608082019050611fee6000830187611920565b611ffb6020830186611fca565b6120086040830185611920565b6120156060830184611fca565b95945050505050565b60008151905061202d81611745565b92915050565b600060208284031215612049576120486114e6565b5b60006120578482850161201e565b91505092915050565b60007fffffffff0000000000000000000000000000000000000000000000000000000082169050919050565b61209581612060565b82525050565b60006020820190506120b0600083018461208c565b92915050565b6120bf8161194a565b81146120ca57600080fd5b50565b6000815190506120dc816120b6565b92915050565b6000602082840312156120f8576120f76114e6565b5b6000612106848285016120cd565b91505092915050565b60006060820190506121246000830186611863565b6121316020830185611920565b61213e6040830184611920565b949350505050565b600060608201905061215b6000830186611863565b6121686020830185611920565b6121756040830184611fca565b949350505050565b7f5265656e7472616e637947756172643a207265656e7472616e742063616c6c00600082015250565b60006121b3601f836117bc565b91506121be8261217d565b602082019050919050565b600060208201905081810360008301526121e2816121a6565b905091905056fea2646970667358221220a33dac74650ddde85c0ddc01ca469919257f21ff934da6fbfd4453090d54f9cb64736f6c63430008110033",
  "linkReferences": {},
  "deployedLinkReferences": {}
}